:0300000002009962
:03000B00020140AF
:1000990075810FC2D3C2D4C200C201C202C203D247
:1000A900AF12012974B412000E4004C2008002D2BA
:1000B9000012012974B512000E4004C2018002D257
:1000C9000112012974B612000E4004C2028002D244
:1000D9000212012974B712000E4004C2038002D231
:0800E90003120003C2AF80FE08
:10000E00C2D3C2D47B05FCC2CA75C90075CD7B753F
:10001E00CC2FC2CFC2ADC2CDC2CCC2CBC2C9C3944B
:10002E00B475F005A42421F8EC540FFC0CE4D33382
:10003E00DCFDFCF452B0D2CA30CFFDF442B0E5B0D4
:10004E005C70FBC2CAC2CFE5B05C60FBE5B05C7011
:10005E00FB7A0875CD0075CC00E5B05C60FBD2CAAA
:10006E00E5B05C70FBC2CAC3E5CC9453E5CD9400F9
:10007E00B3E633F6DADD08DBD886F018E426183658
:0B008E0018361836B5F002D322C3224A
:0A014000C28CC2A915811581C332DB
:10012900C28CE58954F04401F58985008C85008AE3
:07013900C28DD2A9D28C2275
:05000300C28CC2A9221D
:1000F100C290C291C2928530A0D29200C292D2AF78
:1001010075002A75000075000075000012000020BE
:100111008EFDD29200C29275002A120000208EFD3F
:08012100D29200C292853CA0BD
:0100080022D5
:00000001FF
