:0300000002001EDD
:03000B000202846A
:03001B000201FCE3
:10001E00758134C2D3C2D4D2AF75188E75192075BE
:10002E001A00751B001201BE208EFDC200C201C255
:10003E0002C20312026D74B41201334004C2008076
:10004E0002D20012026D74B51201334004C2018057
:10005E0002D20112026D74B61201334004C2028044
:10006E0002D20212026D74B71201334004C2038031
:10007E0002D203120003200017C2938002D293759E
:10008E0018C37519A2751A00751B001201BE809B4C
:10009E007413B5230280E250E0743BB52102800454
:1000AE00500280D97431B5212980275025D29375FD
:1000BE0018E0751970751A72751B001201BEC29385
:1000CE007518E0751970751A72751B001201BE0253
:1000DE0000397427B5210280275025D2937518E078
:1000EE00751970751A72751B001201BEC2937518C0
:1000FE0080751996751A98751B001201BE0200398B
:10010E00D2937518E0751970751A72751B0012016D
:10011E00BEC2937518C07519E1751AE4751B0012ED
:05012E0001BE020039D2
:10013300C2D3C2D47B05FCC2CA75C90075CD7B7519
:10014300CC30C2CFC2ADC2CDC2CCC2CBC2C9C39424
:10015300B475F005A42421F8EC540FFC0CE4D3335C
:10016300DCFDFCF452B0D2CA30CFFDF442B0E5B0AE
:100173005C70FBC2CAC2CFE5B05C60FBE5B05C70EB
:10018300FB7A0875CD0075CC00E5B05C60FBD2CA84
:10019300E5B05C70FBC2CAC3E5CC9453E5CD9400D3
:1001A300B3E633F6DADD08DBD886F018E426183632
:0B01B30018361836B5F002D322C32224
:0A028400C28CC2A915811581C33296
:10026D00C28CE58954F04401F58985008C85008A9E
:07027D00C28DD2A9D28C2230
:05000300C28CC2A9221D
:1001BE00C28EE589540F4420F589758D38758B38BC
:1001CE007818B6000D08B6000908B6000508B60086
:1001DE00012278181518B6FF49151908B6FF4315F0
:0E01EE001A08B6FF3D151BC28FD2ABD28E226F
:1001FC00C0E0C0D0D2D4C2D37818B6001208B60072
:10020C000E08B6000A08B60006C2ABC28E8015787E
:10021C00181518B6FF0E151908B6FF08151A08B6EA
:09022C00FF02151BD0D0D0E03216
:05028E00C2ABC28E228C
:0C000E0075A000C290D29100D292002296
:10023500C290C291C2928530A0D29200C292D2AF32
:1002450075182A751900751A00751B001201BE2054
:100255008EFDD29200C29275182A1201BE208EFD23
:08026500D29200C292853CA078
:00000001FF
