:030000000200A952
:03000B0002000EE2
:03001B000201617E
:1000A900758134C2D3C2D4C200C201C202C203D212
:1000B900AF75188E751920751A00751B001201236A
:1000C900208EFD12019A74B412001E4004C20080F1
:1000D90002D20012019A74B512001E4004C20180B6
:1000E90002D20112019A74B612001E4004C20280A3
:1000F90002D20212019A74B712001E4004C2038090
:1001090002D2031200037518C37519A2751A007576
:0A0119001B00120123208EFD80A9B7
:10001E00C2D3C2D47B05FCC2CA75C90075CD7B752F
:10002E00CC30C2CFC2ADC2CDC2CCC2CBC2C9C3943A
:10003E00B475F005A42421F8EC540FFC0CE4D33372
:10004E00DCFDFCF452B0D2CA30CFFDF442B0E5B0C4
:10005E005C70FBC2CAC2CFE5B05C60FBE5B05C7001
:10006E00FB7A0875CD0075CC00E5B05C60FBD2CA9A
:10007E00E5B05C70FBC2CAC3E5CC9453E5CD9400E9
:10008E00B3E633F6DADD08DBD886F018E426183648
:0B009E0018361836B5F002D322C3223A
:0A000E00C28CC2A915811581C3320E
:10019A00C28CE58954F04401F58985008C85008A72
:0701AA00C28DD2A9D28C2204
:05000300C28CC2A9221D
:10012300C28EE589540F4420F589758D38758B3857
:100133007818B6000D08B6000908B6000508B60021
:10014300012278181518B6FF49151908B6FF43158B
:0E0153001A08B6FF3D151BC28FD2ABD28E220A
:10016100C0E0C0D0D2D4C2D37818B6001208B6000D
:100171000E08B6000A08B60006C2ABC28E8015781A
:10018100181518B6FF0E151908B6FF08151A08B686
:09019100FF02151BD0D0D0E032B2
:0501B100C2ABC28E226A
:00000001FF
